:1000000000040010530000005100000051000000E7
:1000100000000000000000000000000000000000E0
:10002000000000000000000000000000510000007F
:1000300000000000000000005100000099020000D4
:100040005100000051000000510000004F0100006D
:10005000FEE710B50C4A0D490023891A8B4204D0E3
:100060000B48C45CD4540133F8E70A4A0A48002319
:10007000811A8B4204D0D018002404700133F8E7B1
:1000800000F044FD10BDC046000000100400001048
:10009000EC0F000004000010AD020010184B082205
:1000A000196810B591431960164980200C68C00189
:1000B000204308601968144811431960134B1C68E9
:1000C00022431A6001680122114B114301601C6830
:1000D000200C010419601C68042004431C600D4BB3
:1000E0000D4C0E481A604E210D4B216002600D4CE4
:1000F00000221A6020680C490843206010BDC046E9
:100100000480044080800440C0C1004000E100E061
:1001100000C0004094800440204006400C4006404F
:1001200004400640004006400502000083680F2B93
:100130000CD872B68268013282600368C2181173EB
:1001400001680F2301311940016062B6704708B59C
:10015000054B1868C20705D5044905480A68D1B29D
:10016000FFF7E4FF08BDC0462440064014400640A7
:10017000040000108268031C002082420CD072B67A
:1001800098680138986059685A18107B5A680F218E
:1001900001320A405A6062B67047014B9868704756
:1001A00004000010034B19684A07FBD5024A10608F
:1001B0007047C046084006401C40064010B5041C6D
:1001C0002078002803D0FFF7EDFF0134F8E710BDD9
:1001D00008B50248FFF7CEFF08BDC0460400001076
:1001E00008B5FFF7EBFF0248FFF7E8FF08BDC04680
:1001F000220B0000031C3730C0B2092B01D830336A
:10020000D8B270477FB5002301AD061C2B720724BE
:100210000F203040FFF7EEFF36092855013CF7D29A
:10022000281CFFF7CBFF7FBD074B08211A68074842
:100230000A431A600368042213430360036802211F
:100240000B4303607047C046C0C10040002000A0BF
:10025000034B00221A6019688142FCD37047C046E4
:10026000200000100A4930B548680A4A00280AD11F
:10027000136801205C001D016C40E10F88435C00A5
:10028000031C2343136012685501680930BDC04642
:10029000200000100000001008B50F4B1A68986885
:1002A000013201301A60642800DD002098609868EF
:1002B000D9680A4A884201DA002000E00120107063
:1002C00099681A69064B914201DA012000E000208A
:1002D0001870FFF7C7FF08BD20000010010000A044
:1002E000020000A0054B07211A6805480A431A605E
:1002F0000449054B052218600A60704710E000E0D1
:10030000AF04000018E000E014E000E000B50328AE
:1003100007D800F0F1FB07090204044805E004488F
:1003200003E002E0034800E0034800BD2F0B00009B
:10033000350B0000250B00002B0B000064239942B5
:1003400002DCCB43DB170B40642202494375D01A11
:10035000086070472C000010CBB2642B00D96421D8
:100360008175704710B5041C1D48FFF727FF201C3E
:10037000FFF736FF1B48FFF721FF607DFFF742FFC5
:100380001948FFF71BFFA07DFFF73CFF1748FFF759
:1003900015FFE07DFFF736FF1548FFF70FFF207EC2
:1003A000FFF730FF1348FFF709FF607EFFF72AFFD2
:1003B0001148FFF703FFA07EFFF724FF0F48FFF768
:1003C000FDFEE07EFFF7A2FFFFF70AFF0C48FFF7F4
:1003D000F5FE207FFFF79AFFFFF702FF10BDC04632
:1003E0003B0B0000440B00004D0B00005A0B0000BB
:1003F000640B00006F0B00007D0B0000810B000000
:100400008E0B0000F8B5061C13480F1CFFF7E8FE22
:10041000002500247B7E9C4203D1B97E40208D4282
:1004200000D0305D0134FFF7BDFE1E2CF2D10B4829
:100430000135FFF7C3FE1E36142DEAD10848FFF739
:10044000CFFE0848FFF7CCFE0748FFF7C9FE074874
:10045000FFF7C6FEF8BDC046990B0000220B000056
:10046000A40B0000AD0B0000D60B0000FD0B00003C
:1004700008B50848FFF7B4FE0748FFF7B1FE074884
:10048000FFF7AEFE0648FFF7ABFE0648FFF7A8FEF3
:1004900008BDC046030C0000080C00002E0C000034
:1004A000500C0000570C000008B5FFF799FE0248F9
:1004B000FFF796FE08BDC046680C000008B5FFF7C0
:1004C00087FE0028FBD008BD38B5051C19480C1C58
:1004D000FFF774FE022C05D0032C07D0012C07D1A6
:1004E000154800E01548FFF77BFE04E01448FAE7E2
:1004F000201CFFF787FEEB7E002B15D0287F0028FD
:1005000014D0281CFFF72EFF0E48FFF769FE0E4897
:10051000FFF766FEFFF7D2FF312805D0322805D05D
:100520003038431E984103E0EC7600E02C77012040
:1005300038BDC0466E0C0000800C00008D0C000021
:10054000A90C0000B80C0000D50C000010B5041C6C
:10055000FFF788FEC0B2A04201D3001BFBE710BD2D
:10056000F8B5071C051C002600246420FFF7EEFFE9
:10057000612805DD0420FFF7E9FF124A135C0CE057
:100580005E2806DD0520FFF7E1FF0E490818037914
:1005900003E02A23592800DC2E232B5501341E2C7E
:1005A000E3D101361E35142EDED1201CFFF7CEFF1D
:1005B000051C301CFFF7CAFF444358266419E65552
:1005C000F8BDC046C30F0000F8B5041C1F480F1C3F
:1005D000FFF7F4FD0025FFF771FF061E302E03D94B
:1005E00060550135FFF7DEFD132D03DC0A2E01D027
:1005F0000D2EF0D100266421201C6655FFF79EFECB
:100600003220FFF7A3FF3230A0753220FFF79EFFA4
:100610003230E0750A20FFF799FF0A302076E6763F
:1006200026771E20FFF792FF051C1420FFF78EFF90
:10063000FF232A1C1A401E2103404B439E18F35DE2
:100640002E2BEED16576A076F8BDC046010D0000D8
:1006500010B5064C642323602068421E22600028E7
:1006600003DD0A20FFF7F4FDF6E710BD30000010AF
:10067000F8B5041C6E480E1CFFF7B2FDFFF71EFF15
:1006800020231843C0B2662800D0BCE06948FFF7B9
:10069000A7FD6425617D002900D1C3E0002D00D1B4
:1006A000B6E0E27D0A2A02D96348FFF799FDE77DAB
:1006B000142F02D96148FFF793FDE37D1E2B02D969
:1006C0005F48FFF78DFDE07E002807D05D48FFF70B
:1006D00075FDE07EFFF71AFEFFF782FD217F0029FE
:1006E00007D05948FFF76AFD207FFFF70FFEFFF79D
:1006F00077FD5648FFF774FDFFF7E0FE4C2835D034
:100700000DD832283BD005D8312858D1504AE77E41
:10071000153237E0462818D0492850D10CE0692816
:100720000AD004D850283AD0662848D10DE06C2869
:100730001CD0702843D132E04648FFF751FDE77DD9
:10074000434A0A3FE775093207E04348FFF748FD8F
:10075000E17D3F4A1439E1750D320A20975DFFF7BC
:10076000F5FEED1B2D1AFFF773FF2CE03B48FFF75A
:1007700037FDE17D364A1E39E1751132EDE7344A25
:10078000277F1532BB00F01817183548FFF728FDF2
:10079000A07D3F78FFF7DAFEED1B2D1A07E0314808
:1007A000FFF71EFDA07DFFF7D1FEC2435519A37DC3
:1007B000013BD8B2642800D96423A37503E02A481A
:1007C000FFF70EFD02E0E843C3171D402049052056
:1007D00025318F5DFFF7BAFE627D3818C3B2D11A9A
:1007E000201CFFF7ABFD2148FFF7E8FC607DFFF719
:1007F00009FD1F48FFF7E2FC281CFFF703FD1D4819
:10080000FFF7DCFC46E71C48FFF74EFE00200DE03A
:100810003220FFF79BFE323020761848FFF744FE67
:10082000012003E01648FFF7DBFCFEE7F8BDC046F9
:100830001B0D00002C0D00003A0D0000460D0000BD
:10084000530D0000650D00006D0D0000750D0000DA
:10085000C30F00007D0D0000850D00008B0D000012
:10086000900D00009B0D0000A20D0000B40D0000D3
:10087000C10D0000220B0000C90D0000E10D0000B9
:10088000FE0D0000F7B501920C1C4D7E8E7E6E2889
:1008900012D008D865281AD1E90F00231C22AA42D9
:1008A0004B41ED1813E073280BD077280FD1281C8B
:1008B000421E90412D1A0AE0301C421E9041361A09
:1008C00005E0F70F00211223B342794176181E226A
:1008D0007243019957197B5C2A2B03D13F48FFF7DC
:1008E000E3FD79E06576A676582B5DD014D8482BC9
:1008F00038D007D8442B6FD13948FFF7D5FD201CDD
:10090000022134E04F2B27D0542B65D13548FFF717
:10091000CBFD201C01212AE06D2B3ED00CD8672B8B
:1009200034D0682B58D13048FFF7BEFD617D201CC4
:100930000A31FFF703FD49E0732B1CD0772B4BD115
:100940000320FFF703FE411C201CFFF7BDFD071C21
:10095000201CFFF707FD37E02448FFF7A5FD201C0A
:10096000002104E02248FFF79FFD201C0321FFF730
:100970007FFE071C28E01F48FFF796FDA17D01318F
:10098000CAB2642A00D96421A1751FE01A48FFF792
:100990008BFD207E0130207618E01848FFF784FD9B
:1009A000E37D0133E37511E01548FFF719FC201CC6
:1009B0006421FFF7C3FC134F381CFFF7D1FD381C2F
:1009C000211CFFF71FFD07E0002F05D01E24664302
:1009D000019875192E262E54F7BDC046230E00002F
:1009E000800E0000630E0000CE0E00003C0E0000E2
:1009F000A70E0000EB0E0000090F0000280F0000FA
:100A00003F0F00003800001070B53048FFF7E8FBDA
:100A1000FFF72EFD2E4C2368002B0BD12D48FFF73E
:100A200043FDFFF74BFD532801D07328F2D101237A
:100A30002360EFE7284E301CFFF792FD274D311C55
:100A4000281CFFF7C1FD281CFFF78CFC301C291C5B
:100A5000FFF7D8FC2248FFF727FDFFF72FFD2021E5
:100A60000143CCB26E2C14D006D8652C1CD0682C57
:100A70000CD0232CF1D11BE0732C0CD0772C15D08B
:100A8000702CEAD1281CFFF76DFCE6E7FFF7F0FCBD
:100A9000E3E7144800E01448FFF706FD201C291C7A
:100AA000321CFFF7EFFED8E71048F5E71048F3E7F0
:100AB000287E002807D0301C291CFFF7A3FC2A7EC3
:100AC000013A2A76C9E70B48C5E7C046610F000026
:100AD000340000107C0F000038000010900200105D
:100AE000980F0000A90F0000AF0F0000B50F000025
:100AF000290C0000BA0F000002B4714649084900F1
:0C0B0000095C49008E4402BC7047C046EE
:100B0C0008B5FFF78BFBFFF7E7FBFFF7C1FA62B6FF
:060B1C00FFF774FFFCE787
:100B22000D0A00456D707479004178650053776F46
:100B3200726400466C61696C000D0A4E616D653A23
:100B420020006865616C74683A20000D0A73747243
:100B5200656E6774683A20000D0A6D616769633AD1
:100B620020000D0A7765616C74683A20000D0A4C0A
:100B72006F636174696F6E203A2000202C20000D93
:100B82000A576561706F6E31203A200057656170B7
:100B92006F6E32203A2000546865205265616C6D98
:100BA2003A000D0A4C6567656E6400285429726F1D
:100BB2006C6C2C20284F296772652C2028442972DE
:100BC20061676F6E2C2028482961672C20652858A0
:100BD200296974002877296561706F6E2C20286757
:100BE200296F6C64292C20286D29616769632C2088
:100BF2002873297472656E67746800403D596F7579
:100C02000048656C70004E2C532C452C57203A201E
:100C1200676F204E6F7274682C20536F7574682C46
:100C220020456173742C20576573740023203A2089
:100C320073686F77206D61702028636F73743A2038
:100C42003120676F6C6420706965636529002848EC
:100C520029656C70002850296C6179657220646581
:100C62007461696C7300526561647900596F752013
:100C72007374756D626C652075706F6E20006120F3
:100C82006D69676874792061786500612073776F98
:100C920072642077697468206D7973746963616C1A
:100CA2002072756E6573006120626C6F6F647920CB
:100CB200666C61696C00596F7520616C7265616464
:100CC2007920686176652074776F20776561706F2F
:100CD2006E73002831292064726F7020576561702D
:100CE2006F6E312C2028322920666F722057656181
:100CF200706F6E322C2028302920736B697000458A
:100D02006E7465722074686520706C6179657227F3
:100D120073206E616D653A200050726573732046D0
:100D220020746F2066696768740043686F6F73652B
:100D320020616374696F6E002849294345207370EE
:100D4200656C6C00284629697265207370656C6C4D
:100D520000284C29696768746E696E672073706534
:100D62006C6C00283129557365200028322955738F
:100D7200652000285029756E636800465245455A21
:100D82004521004255524E21005A415021005461E2
:100D92006B65207468617421005468756D70210060
:100DA200596F752066756D626C652E205568206FCF
:100DB20068004865616C74683A20796F7520002C70
:100DC200207468656D20004F757220276865726F08
:100DD2002720636869636B656E73206F75740059B1
:100DE2006F752077696E2120546865697220676F7C
:100DF2006C6420697320796F75727300596F752066
:100E020061726520646561642E205072657373207F
:100E1200526573657420746F2072657374617274A5
:100E2200004120726F636B20626C6F636B73207979
:100E32006F757220706174682E004120736D656C4D
:100E42006C7920677265656E204F677265206170EC
:100E52007065617273206265666F726520796F7565
:100E620000416E206576696C2074726F6C6C206331
:100E720068616C6C656E67657320796F75004120DF
:100E8200736D6F756C646572696E67204472616719
:100E92006F6E20626C6F636B7320796F757220774F
:100EA2006179202100412077697468657265642048
:100EB200686167206361636B6C657320617420797C
:100EC2006F75207769636B65646C7900596F752063
:100ED20066696E6420616E20656C69786572206F48
:100EE20066206865616C746800596F752066696E6A
:100EF20064206120706F74696F6E206F6620737456
:100F020072656E67746800596F752066696E642039
:100F120061207368696E7920676F6C64656E206EFC
:100F2200756767657400596F752066696E64206124
:100F3200206D6167696320636861726D004120649E
:100F42006F6F722120596F75206578697420696E00
:100F5200746F2061206E6577207265616C6D004D43
:100F62006963726F5265616C6D73206F6E20746875
:100F720065204C50433831302E0050726573732017
:100F82005320746F2073746172742061206E6577D0
:100F92002067616D65005072657373204820666F2B
:100FA200722068656C70004E6F72746800536F75C2
:100FB20074680045617374004E6F20676F6C642122
:010FC200002E
:100FC3004F54444868736D67770A140500140A0583
:100FD300000F0A19000A0A05190A0A05190A0F055A
:090FE3000F0505020A0A0A0F05B8
:040FEC00A5A5A5A56D
:00000001FF
